{
  "_format": "hh-sol-artifact-1",
  "contractName": "POPGToken",
  "sourceName": "contracts/POPGToken.sol",
  "abi": [
    {
      "inputs": [],
      "stateMutability": "nonpayable",
      "type": "constructor"
    },
    {
      "inputs": [],
      "name": "ECDSAInvalidSignature",
      "type": "error"
    },
    {
      "inputs": [
        {
          "internalType": "uint256",
          "name": "length",
          "type": "uint256"
        }
      ],
      "name": "ECDSAInvalidSignatureLength",
      "type": "error"
    },
    {
      "inputs": [
        {
          "internalType": "bytes32",
          "name": "s",
          "type": "bytes32"
        }
      ],
      "name": "ECDSAInvalidSignatureS",
      "type": "error"
    },
    {
      "inputs": [
        {
          "internalType": "address",
          "name": "spender",
          "type": "address"
        },
        {
          "internalType": "uint256",
          "name": "allowance",
          "type": "uint256"
        },
        {
          "internalType": "uint256",
          "name": "needed",
          "type": "uint256"
        }
      ],
      "name": "ERC20InsufficientAllowance",
      "type": "error"
    },
    {
      "inputs": [
        {
          "internalType": "address",
          "name": "sender",
          "type": "address"
        },
        {
          "internalType": "uint256",
          "name": "balance",
          "type": "uint256"
        },
        {
          "internalType": "uint256",
          "name": "needed",
          "type": "uint256"
        }
      ],
      "name": "ERC20InsufficientBalance",
      "type": "error"
    },
    {
      "inputs": [
        {
          "internalType": "address",
          "name": "approver",
          "type": "address"
        }
      ],
      "name": "ERC20InvalidApprover",
      "type": "error"
    },
    {
      "inputs": [
        {
          "internalType": "address",
          "name": "receiver",
          "type": "address"
        }
      ],
      "name": "ERC20InvalidReceiver",
      "type": "error"
    },
    {
      "inputs": [
        {
          "internalType": "address",
          "name": "sender",
          "type": "address"
        }
      ],
      "name": "ERC20InvalidSender",
      "type": "error"
    },
    {
      "inputs": [
        {
          "internalType": "address",
          "name": "spender",
          "type": "address"
        }
      ],
      "name": "ERC20InvalidSpender",
      "type": "error"
    },
    {
      "inputs": [
        {
          "internalType": "uint256",
          "name": "deadline",
          "type": "uint256"
        }
      ],
      "name": "ERC2612ExpiredSignature",
      "type": "error"
    },
    {
      "inputs": [
        {
          "internalType": "address",
          "name": "signer",
          "type": "address"
        },
        {
          "internalType": "address",
          "name": "owner",
          "type": "address"
        }
      ],
      "name": "ERC2612InvalidSigner",
      "type": "error"
    },
    {
      "inputs": [
        {
          "internalType": "address",
          "name": "account",
          "type": "address"
        },
        {
          "internalType": "uint256",
          "name": "currentNonce",
          "type": "uint256"
        }
      ],
      "name": "InvalidAccountNonce",
      "type": "error"
    },
    {
      "inputs": [],
      "name": "InvalidShortString",
      "type": "error"
    },
    {
      "inputs": [
        {
          "internalType": "address",
          "name": "owner",
          "type": "address"
        }
      ],
      "name": "OwnableInvalidOwner",
      "type": "error"
    },
    {
      "inputs": [
        {
          "internalType": "address",
          "name": "account",
          "type": "address"
        }
      ],
      "name": "OwnableUnauthorizedAccount",
      "type": "error"
    },
    {
      "inputs": [
        {
          "internalType": "string",
          "name": "str",
          "type": "string"
        }
      ],
      "name": "StringTooLong",
      "type": "error"
    },
    {
      "anonymous": false,
      "inputs": [
        {
          "indexed": true,
          "internalType": "address",
          "name": "owner",
          "type": "address"
        },
        {
          "indexed": true,
          "internalType": "address",
          "name": "spender",
          "type": "address"
        },
        {
          "indexed": false,
          "internalType": "uint256",
          "name": "value",
          "type": "uint256"
        }
      ],
      "name": "Approval",
      "type": "event"
    },
    {
      "anonymous": false,
      "inputs": [],
      "name": "EIP712DomainChanged",
      "type": "event"
    },
    {
      "anonymous": false,
      "inputs": [
        {
          "indexed": true,
          "internalType": "address",
          "name": "previousOwner",
          "type": "address"
        },
        {
          "indexed": true,
          "internalType": "address",
          "name": "newOwner",
          "type": "address"
        }
      ],
      "name": "OwnershipTransferred",
      "type": "event"
    },
    {
      "anonymous": false,
      "inputs": [
        {
          "indexed": true,
          "internalType": "address",
          "name": "from",
          "type": "address"
        },
        {
          "indexed": true,
          "internalType": "address",
          "name": "to",
          "type": "address"
        },
        {
          "indexed": false,
          "internalType": "uint256",
          "name": "value",
          "type": "uint256"
        }
      ],
      "name": "Transfer",
      "type": "event"
    },
    {
      "inputs": [],
      "name": "DOMAIN_SEPARATOR",
      "outputs": [
        {
          "internalType": "bytes32",
          "name": "",
          "type": "bytes32"
        }
      ],
      "stateMutability": "view",
      "type": "function"
    },
    {
      "inputs": [],
      "name": "MAX_SUPPLY",
      "outputs": [
        {
          "internalType": "uint256",
          "name": "",
          "type": "uint256"
        }
      ],
      "stateMutability": "view",
      "type": "function"
    },
    {
      "inputs": [
        {
          "internalType": "address",
          "name": "owner",
          "type": "address"
        },
        {
          "internalType": "address",
          "name": "spender",
          "type": "address"
        }
      ],
      "name": "allowance",
      "outputs": [
        {
          "internalType": "uint256",
          "name": "",
          "type": "uint256"
        }
      ],
      "stateMutability": "view",
      "type": "function"
    },
    {
      "inputs": [
        {
          "internalType": "address",
          "name": "spender",
          "type": "address"
        },
        {
          "internalType": "uint256",
          "name": "value",
          "type": "uint256"
        }
      ],
      "name": "approve",
      "outputs": [
        {
          "internalType": "bool",
          "name": "",
          "type": "bool"
        }
      ],
      "stateMutability": "nonpayable",
      "type": "function"
    },
    {
      "inputs": [
        {
          "internalType": "address",
          "name": "account",
          "type": "address"
        }
      ],
      "name": "balanceOf",
      "outputs": [
        {
          "internalType": "uint256",
          "name": "",
          "type": "uint256"
        }
      ],
      "stateMutability": "view",
      "type": "function"
    },
    {
      "inputs": [
        {
          "internalType": "address",
          "name": "account",
          "type": "address"
        },
        {
          "internalType": "uint256",
          "name": "amount",
          "type": "uint256"
        }
      ],
      "name": "burn",
      "outputs": [],
      "stateMutability": "nonpayable",
      "type": "function"
    },
    {
      "inputs": [],
      "name": "decimals",
      "outputs": [
        {
          "internalType": "uint8",
          "name": "",
          "type": "uint8"
        }
      ],
      "stateMutability": "view",
      "type": "function"
    },
    {
      "inputs": [],
      "name": "eip712Domain",
      "outputs": [
        {
          "internalType": "bytes1",
          "name": "fields",
          "type": "bytes1"
        },
        {
          "internalType": "string",
          "name": "name",
          "type": "string"
        },
        {
          "internalType": "string",
          "name": "version",
          "type": "string"
        },
        {
          "internalType": "uint256",
          "name": "chainId",
          "type": "uint256"
        },
        {
          "internalType": "address",
          "name": "verifyingContract",
          "type": "address"
        },
        {
          "internalType": "bytes32",
          "name": "salt",
          "type": "bytes32"
        },
        {
          "internalType": "uint256[]",
          "name": "extensions",
          "type": "uint256[]"
        }
      ],
      "stateMutability": "view",
      "type": "function"
    },
    {
      "inputs": [],
      "name": "name",
      "outputs": [
        {
          "internalType": "string",
          "name": "",
          "type": "string"
        }
      ],
      "stateMutability": "view",
      "type": "function"
    },
    {
      "inputs": [
        {
          "internalType": "address",
          "name": "owner",
          "type": "address"
        }
      ],
      "name": "nonces",
      "outputs": [
        {
          "internalType": "uint256",
          "name": "",
          "type": "uint256"
        }
      ],
      "stateMutability": "view",
      "type": "function"
    },
    {
      "inputs": [],
      "name": "owner",
      "outputs": [
        {
          "internalType": "address",
          "name": "",
          "type": "address"
        }
      ],
      "stateMutability": "view",
      "type": "function"
    },
    {
      "inputs": [
        {
          "internalType": "address",
          "name": "owner",
          "type": "address"
        },
        {
          "internalType": "address",
          "name": "spender",
          "type": "address"
        },
        {
          "internalType": "uint256",
          "name": "value",
          "type": "uint256"
        },
        {
          "internalType": "uint256",
          "name": "deadline",
          "type": "uint256"
        },
        {
          "internalType": "uint8",
          "name": "v",
          "type": "uint8"
        },
        {
          "internalType": "bytes32",
          "name": "r",
          "type": "bytes32"
        },
        {
          "internalType": "bytes32",
          "name": "s",
          "type": "bytes32"
        }
      ],
      "name": "permit",
      "outputs": [],
      "stateMutability": "nonpayable",
      "type": "function"
    },
    {
      "inputs": [],
      "name": "renounceOwnership",
      "outputs": [],
      "stateMutability": "nonpayable",
      "type": "function"
    },
    {
      "inputs": [],
      "name": "symbol",
      "outputs": [
        {
          "internalType": "string",
          "name": "",
          "type": "string"
        }
      ],
      "stateMutability": "view",
      "type": "function"
    },
    {
      "inputs": [],
      "name": "totalSupply",
      "outputs": [
        {
          "internalType": "uint256",
          "name": "",
          "type": "uint256"
        }
      ],
      "stateMutability": "view",
      "type": "function"
    },
    {
      "inputs": [
        {
          "internalType": "address",
          "name": "to",
          "type": "address"
        },
        {
          "internalType": "uint256",
          "name": "value",
          "type": "uint256"
        }
      ],
      "name": "transfer",
      "outputs": [
        {
          "internalType": "bool",
          "name": "",
          "type": "bool"
        }
      ],
      "stateMutability": "nonpayable",
      "type": "function"
    },
    {
      "inputs": [
        {
          "internalType": "address",
          "name": "from",
          "type": "address"
        },
        {
          "internalType": "address",
          "name": "to",
          "type": "address"
        },
        {
          "internalType": "uint256",
          "name": "value",
          "type": "uint256"
        }
      ],
      "name": "transferFrom",
      "outputs": [
        {
          "internalType": "bool",
          "name": "",
          "type": "bool"
        }
      ],
      "stateMutability": "nonpayable",
      "type": "function"
    },
    {
      "inputs": [
        {
          "internalType": "address",
          "name": "newOwner",
          "type": "address"
        }
      ],
      "name": "transferOwnership",
      "outputs": [],
      "stateMutability": "nonpayable",
      "type": "function"
    }
  ],
  "bytecode": "0x6101606040523480156200001257600080fd5b50336040518060400160405280600a8152602001692827a823902a37b5b2b760b11b81525080604051806040016040528060018152602001603160f81b81525060405180604001604052806004815260200163504f504760e01b81525060405180604001604052806004815260200163504f504760e01b81525081600390816200009d9190620004a7565b506004620000ac8282620004a7565b50620000be91508390506005620001c1565b61012052620000cf816006620001c1565b61014052815160208084019190912060e052815190820120610100524660a0526200015d60e05161010051604080517f8b73c3c69bb8fe3d512ecc4cf759cc79239f7b179b0ffacaa9a75d522b39400f60208201529081019290925260608201524660808201523060a082015260009060c00160405160208183030381529060405280519060200120905090565b60805250503060c052506001600160a01b0381166200019757604051631e4fbdf760e01b8152600060048201526024015b60405180910390fd5b620001a281620001fa565b50620001bb336b204fce5e3e250261100000006200024c565b6200060b565b6000602083511015620001e157620001d9836200028a565b9050620001f4565b81620001ee8482620004a7565b5060ff90505b92915050565b600880546001600160a01b038381166001600160a01b0319831681179093556040519116919082907f8be0079c531659141344cd1fd0a4f28419497f9722a3daafe3b4186f6b6457e090600090a35050565b6001600160a01b038216620002785760405163ec442f0560e01b8152600060048201526024016200018e565b6200028660008383620002cd565b5050565b600080829050601f81511115620002b8578260405163305a27a960e01b81526004016200018e919062000573565b8051620002c582620005c4565b179392505050565b6001600160a01b038316620002fc578060026000828254620002f09190620005e9565b90915550620003709050565b6001600160a01b03831660009081526020819052604090205481811015620003515760405163391434e360e21b81526001600160a01b038516600482015260248101829052604481018390526064016200018e565b6001600160a01b03841660009081526020819052604090209082900390555b6001600160a01b0382166200038e57600280548290039055620003ad565b6001600160a01b03821660009081526020819052604090208054820190555b816001600160a01b0316836001600160a01b03167fddf252ad1be2c89b69c2b068fc378daa952ba7f163c4a11628f55a4df523b3ef83604051620003f391815260200190565b60405180910390a3505050565b634e487b7160e01b600052604160045260246000fd5b600181811c908216806200042b57607f821691505b6020821081036200044c57634e487b7160e01b600052602260045260246000fd5b50919050565b601f821115620004a2576000816000526020600020601f850160051c810160208610156200047d5750805b601f850160051c820191505b818110156200049e5782815560010162000489565b5050505b505050565b81516001600160401b03811115620004c357620004c362000400565b620004db81620004d4845462000416565b8462000452565b602080601f831160018114620005135760008415620004fa5750858301515b600019600386901b1c1916600185901b1785556200049e565b600085815260208120601f198616915b82811015620005445788860151825594840194600190910190840162000523565b5085821015620005635787850151600019600388901b60f8161c191681555b5050505050600190811b01905550565b60006020808352835180602085015260005b81811015620005a35785810183015185820160400152820162000585565b506000604082860101526040601f19601f8301168501019250505092915050565b805160208083015191908110156200044c5760001960209190910360031b1b16919050565b80820180821115620001f457634e487b7160e01b600052601160045260246000fd5b60805160a05160c05160e0516101005161012051610140516110bb6200066660003960006108880152600061085b015260006107840152600061075c015260006106b7015260006106e10152600061070b01526110bb6000f3fe608060405234801561001057600080fd5b50600436106101165760003560e01c80637ecebe00116100a25780639dc29fac116100715780639dc29fac1461022f578063a9059cbb14610242578063d505accf14610255578063dd62ed3e14610268578063f2fde38b146102a157600080fd5b80637ecebe00146101de57806384b0196e146101f15780638da5cb5b1461020c57806395d89b411461022757600080fd5b8063313ce567116100e9578063313ce5671461018157806332cb6b0c146101905780633644e515146101a357806370a08231146101ab578063715018a6146101d457600080fd5b806306fdde031461011b578063095ea7b31461013957806318160ddd1461015c57806323b872dd1461016e575b600080fd5b6101236102b4565b6040516101309190610e1e565b60405180910390f35b61014c610147366004610e54565b610346565b6040519015158152602001610130565b6002545b604051908152602001610130565b61014c61017c366004610e7e565b610360565b60405160128152602001610130565b6101606b204fce5e3e2502611000000081565b610160610384565b6101606101b9366004610eba565b6001600160a01b031660009081526020819052604090205490565b6101dc610393565b005b6101606101ec366004610eba565b6103a7565b6101f96103c5565b6040516101309796959493929190610ed5565b6008546040516001600160a01b039091168152602001610130565b61012361040b565b6101dc61023d366004610e54565b61041a565b61014c610250366004610e54565b610430565b6101dc610263366004610f6e565b61043e565b610160610276366004610fe1565b6001600160a01b03918216600090815260016020908152604080832093909416825291909152205490565b6101dc6102af366004610eba565b61057d565b6060600380546102c390611014565b80601f01602080910402602001604051908101604052809291908181526020018280546102ef90611014565b801561033c5780601f106103115761010080835404028352916020019161033c565b820191906000526020600020905b81548152906001019060200180831161031f57829003601f168201915b5050505050905090565b6000336103548185856105bb565b60019150505b92915050565b60003361036e8582856105cd565b61037985858561064b565b506001949350505050565b600061038e6106aa565b905090565b61039b6107d5565b6103a56000610802565b565b6001600160a01b03811660009081526007602052604081205461035a565b6000606080600080600060606103d9610854565b6103e1610881565b60408051600080825260208201909252600f60f81b9b939a50919850469750309650945092509050565b6060600480546102c390611014565b6104226107d5565b61042c82826108ae565b5050565b60003361035481858561064b565b834211156104675760405163313c898160e11b8152600481018590526024015b60405180910390fd5b60007f6e71edae12b1b97f4d1f60370fef10105fa2faae0126114a169c64845d6126c98888886104b48c6001600160a01b0316600090815260076020526040902080546001810190915590565b6040805160208101969096526001600160a01b0394851690860152929091166060840152608083015260a082015260c0810186905260e001604051602081830303815290604052805190602001209050600061050f826108e4565b9050600061051f82878787610911565b9050896001600160a01b0316816001600160a01b031614610566576040516325c0072360e11b81526001600160a01b0380831660048301528b16602482015260440161045e565b6105718a8a8a6105bb565b50505050505050505050565b6105856107d5565b6001600160a01b0381166105af57604051631e4fbdf760e01b81526000600482015260240161045e565b6105b881610802565b50565b6105c8838383600161093f565b505050565b6001600160a01b038381166000908152600160209081526040808320938616835292905220546000198114610645578181101561063657604051637dc7a0d960e11b81526001600160a01b0384166004820152602481018290526044810183905260640161045e565b6106458484848403600061093f565b50505050565b6001600160a01b03831661067557604051634b637e8f60e11b81526000600482015260240161045e565b6001600160a01b03821661069f5760405163ec442f0560e01b81526000600482015260240161045e565b6105c8838383610a14565b6000306001600160a01b037f00000000000000000000000000000000000000000000000000000000000000001614801561070357507f000000000000000000000000000000000000000000000000000000000000000046145b1561072d57507f000000000000000000000000000000000000000000000000000000000000000090565b61038e604080517f8b73c3c69bb8fe3d512ecc4cf759cc79239f7b179b0ffacaa9a75d522b39400f60208201527f0000000000000000000000000000000000000000000000000000000000000000918101919091527f000000000000000000000000000000000000000000000000000000000000000060608201524660808201523060a082015260009060c00160405160208183030381529060405280519060200120905090565b6008546001600160a01b031633146103a55760405163118cdaa760e01b815233600482015260240161045e565b600880546001600160a01b038381166001600160a01b0319831681179093556040519116919082907f8be0079c531659141344cd1fd0a4f28419497f9722a3daafe3b4186f6b6457e090600090a35050565b606061038e7f00000000000000000000000000000000000000000000000000000000000000006005610b3e565b606061038e7f00000000000000000000000000000000000000000000000000000000000000006006610b3e565b6001600160a01b0382166108d857604051634b637e8f60e11b81526000600482015260240161045e565b61042c82600083610a14565b600061035a6108f16106aa565b8360405161190160f01b8152600281019290925260228201526042902090565b60008060008061092388888888610be9565b9250925092506109338282610cb8565b50909695505050505050565b6001600160a01b0384166109695760405163e602df0560e01b81526000600482015260240161045e565b6001600160a01b03831661099357604051634a1406b160e11b81526000600482015260240161045e565b6001600160a01b038085166000908152600160209081526040808320938716835292905220829055801561064557826001600160a01b0316846001600160a01b03167f8c5be1e5ebec7d5bd14f71427d1e84f3dd0314c0f7b2291e5b200ac8c7c3b92584604051610a0691815260200190565b60405180910390a350505050565b6001600160a01b038316610a3f578060026000828254610a34919061104e565b90915550610ab19050565b6001600160a01b03831660009081526020819052604090205481811015610a925760405163391434e360e21b81526001600160a01b0385166004820152602481018290526044810183905260640161045e565b6001600160a01b03841660009081526020819052604090209082900390555b6001600160a01b038216610acd57600280548290039055610aec565b6001600160a01b03821660009081526020819052604090208054820190555b816001600160a01b0316836001600160a01b03167fddf252ad1be2c89b69c2b068fc378daa952ba7f163c4a11628f55a4df523b3ef83604051610b3191815260200190565b60405180910390a3505050565b606060ff8314610b5857610b5183610d71565b905061035a565b818054610b6490611014565b80601f0160208091040260200160405190810160405280929190818152602001828054610b9090611014565b8015610bdd5780601f10610bb257610100808354040283529160200191610bdd565b820191906000526020600020905b815481529060010190602001808311610bc057829003601f168201915b5050505050905061035a565b600080807f7fffffffffffffffffffffffffffffff5d576e7357a4501ddfe92f46681b20a0841115610c245750600091506003905082610cae565b604080516000808252602082018084528a905260ff891692820192909252606081018790526080810186905260019060a0016020604051602081039080840390855afa158015610c78573d6000803e3d6000fd5b5050604051601f1901519150506001600160a01b038116610ca457506000925060019150829050610cae565b9250600091508190505b9450945094915050565b6000826003811115610ccc57610ccc61106f565b03610cd5575050565b6001826003811115610ce957610ce961106f565b03610d075760405163f645eedf60e01b815260040160405180910390fd5b6002826003811115610d1b57610d1b61106f565b03610d3c5760405163fce698f760e01b81526004810182905260240161045e565b6003826003811115610d5057610d5061106f565b0361042c576040516335e2f38360e21b81526004810182905260240161045e565b60606000610d7e83610db0565b604080516020808252818301909252919250600091906020820181803683375050509182525060208101929092525090565b600060ff8216601f81111561035a57604051632cd44ac360e21b815260040160405180910390fd5b6000815180845260005b81811015610dfe57602081850181015186830182015201610de2565b506000602082860101526020601f19601f83011685010191505092915050565b602081526000610e316020830184610dd8565b9392505050565b80356001600160a01b0381168114610e4f57600080fd5b919050565b60008060408385031215610e6757600080fd5b610e7083610e38565b946020939093013593505050565b600080600060608486031215610e9357600080fd5b610e9c84610e38565b9250610eaa60208501610e38565b9150604084013590509250925092565b600060208284031215610ecc57600080fd5b610e3182610e38565b60ff60f81b881681526000602060e06020840152610ef660e084018a610dd8565b8381036040850152610f08818a610dd8565b606085018990526001600160a01b038816608086015260a0850187905284810360c08601528551808252602080880193509091019060005b81811015610f5c57835183529284019291840191600101610f40565b50909c9b505050505050505050505050565b600080600080600080600060e0888a031215610f8957600080fd5b610f9288610e38565b9650610fa060208901610e38565b95506040880135945060608801359350608088013560ff81168114610fc457600080fd5b9699959850939692959460a0840135945060c09093013592915050565b60008060408385031215610ff457600080fd5b610ffd83610e38565b915061100b60208401610e38565b90509250929050565b600181811c9082168061102857607f821691505b60208210810361104857634e487b7160e01b600052602260045260246000fd5b50919050565b8082018082111561035a57634e487b7160e01b600052601160045260246000fd5b634e487b7160e01b600052602160045260246000fdfea264697066735822122072c7324d6e4904016328830488bf1a86bdff9177e3cdb5b7940d26dffd25c55764736f6c63430008160033",
  "linkReferences": {},
  "deployedLinkReferences": {}
}