{
  "_format": "hh-sol-artifact-1",
  "contractName": "VestingWallet",
  "sourceName": "contracts/VestingWallet.sol",
  "abi": [
    {
      "inputs": [
        {
          "internalType": "address[4]",
          "name": "benificiary",
          "type": "address[4]"
        }
      ],
      "stateMutability": "nonpayable",
      "type": "constructor"
    },
    {
      "inputs": [
        {
          "internalType": "address",
          "name": "owner",
          "type": "address"
        }
      ],
      "name": "OwnableInvalidOwner",
      "type": "error"
    },
    {
      "inputs": [
        {
          "internalType": "address",
          "name": "account",
          "type": "address"
        }
      ],
      "name": "OwnableUnauthorizedAccount",
      "type": "error"
    },
    {
      "anonymous": false,
      "inputs": [
        {
          "indexed": true,
          "internalType": "uint8",
          "name": "index",
          "type": "uint8"
        },
        {
          "indexed": true,
          "internalType": "address",
          "name": "oldAddress",
          "type": "address"
        },
        {
          "indexed": false,
          "internalType": "address",
          "name": "newAddress",
          "type": "address"
        }
      ],
      "name": "ChangeAddressRecipient",
      "type": "event"
    },
    {
      "anonymous": false,
      "inputs": [
        {
          "indexed": true,
          "internalType": "address",
          "name": "token",
          "type": "address"
        },
        {
          "indexed": false,
          "internalType": "uint256",
          "name": "amount",
          "type": "uint256"
        }
      ],
      "name": "ERC20Released",
      "type": "event"
    },
    {
      "anonymous": false,
      "inputs": [
        {
          "indexed": true,
          "internalType": "address",
          "name": "previousOwner",
          "type": "address"
        },
        {
          "indexed": true,
          "internalType": "address",
          "name": "newOwner",
          "type": "address"
        }
      ],
      "name": "OwnershipTransferred",
      "type": "event"
    },
    {
      "inputs": [],
      "name": "MILESTONE_1_DATE",
      "outputs": [
        {
          "internalType": "uint256",
          "name": "",
          "type": "uint256"
        }
      ],
      "stateMutability": "view",
      "type": "function"
    },
    {
      "inputs": [],
      "name": "MILESTONE_2_DATE",
      "outputs": [
        {
          "internalType": "uint256",
          "name": "",
          "type": "uint256"
        }
      ],
      "stateMutability": "view",
      "type": "function"
    },
    {
      "inputs": [],
      "name": "MILESTONE_3_DATE",
      "outputs": [
        {
          "internalType": "uint256",
          "name": "",
          "type": "uint256"
        }
      ],
      "stateMutability": "view",
      "type": "function"
    },
    {
      "inputs": [],
      "name": "MILESTONE_4_DATE",
      "outputs": [
        {
          "internalType": "uint256",
          "name": "",
          "type": "uint256"
        }
      ],
      "stateMutability": "view",
      "type": "function"
    },
    {
      "inputs": [
        {
          "internalType": "address",
          "name": "",
          "type": "address"
        }
      ],
      "name": "_erc20Released",
      "outputs": [
        {
          "internalType": "uint256",
          "name": "",
          "type": "uint256"
        }
      ],
      "stateMutability": "view",
      "type": "function"
    },
    {
      "inputs": [
        {
          "internalType": "uint256",
          "name": "totalAllocation",
          "type": "uint256"
        },
        {
          "internalType": "uint256",
          "name": "timestamp",
          "type": "uint256"
        }
      ],
      "name": "_vestingSchedule",
      "outputs": [
        {
          "internalType": "uint256",
          "name": "",
          "type": "uint256"
        }
      ],
      "stateMutability": "view",
      "type": "function"
    },
    {
      "inputs": [],
      "name": "advisor",
      "outputs": [
        {
          "internalType": "address",
          "name": "",
          "type": "address"
        }
      ],
      "stateMutability": "view",
      "type": "function"
    },
    {
      "inputs": [],
      "name": "businessMarketing",
      "outputs": [
        {
          "internalType": "address",
          "name": "",
          "type": "address"
        }
      ],
      "stateMutability": "view",
      "type": "function"
    },
    {
      "inputs": [
        {
          "internalType": "uint8",
          "name": "index",
          "type": "uint8"
        },
        {
          "internalType": "address",
          "name": "_benificiary",
          "type": "address"
        }
      ],
      "name": "changeAddressBenificiary",
      "outputs": [
        {
          "internalType": "bool",
          "name": "",
          "type": "bool"
        }
      ],
      "stateMutability": "nonpayable",
      "type": "function"
    },
    {
      "inputs": [],
      "name": "end",
      "outputs": [
        {
          "internalType": "uint256",
          "name": "",
          "type": "uint256"
        }
      ],
      "stateMutability": "view",
      "type": "function"
    },
    {
      "inputs": [
        {
          "internalType": "address",
          "name": "token",
          "type": "address"
        }
      ],
      "name": "getAvailableAmount",
      "outputs": [
        {
          "internalType": "uint256",
          "name": "",
          "type": "uint256"
        }
      ],
      "stateMutability": "view",
      "type": "function"
    },
    {
      "inputs": [
        {
          "internalType": "uint8",
          "name": "index",
          "type": "uint8"
        }
      ],
      "name": "getBenificiary",
      "outputs": [
        {
          "internalType": "address",
          "name": "",
          "type": "address"
        }
      ],
      "stateMutability": "view",
      "type": "function"
    },
    {
      "inputs": [
        {
          "internalType": "address",
          "name": "_address",
          "type": "address"
        }
      ],
      "name": "getDistributionData",
      "outputs": [
        {
          "components": [
            {
              "internalType": "uint8",
              "name": "percentage",
              "type": "uint8"
            },
            {
              "internalType": "uint8",
              "name": "phase",
              "type": "uint8"
            }
          ],
          "internalType": "struct VestingWallet.InforDistribute[]",
          "name": "",
          "type": "tuple[]"
        }
      ],
      "stateMutability": "view",
      "type": "function"
    },
    {
      "inputs": [
        {
          "internalType": "uint256",
          "name": "time",
          "type": "uint256"
        }
      ],
      "name": "getPhaseAtTime",
      "outputs": [
        {
          "internalType": "uint256",
          "name": "",
          "type": "uint256"
        }
      ],
      "stateMutability": "view",
      "type": "function"
    },
    {
      "inputs": [
        {
          "internalType": "uint256",
          "name": "",
          "type": "uint256"
        }
      ],
      "name": "milestones",
      "outputs": [
        {
          "internalType": "uint256",
          "name": "dateRelease",
          "type": "uint256"
        },
        {
          "internalType": "uint256",
          "name": "percentage",
          "type": "uint256"
        },
        {
          "internalType": "bool",
          "name": "released",
          "type": "bool"
        }
      ],
      "stateMutability": "view",
      "type": "function"
    },
    {
      "inputs": [],
      "name": "owner",
      "outputs": [
        {
          "internalType": "address",
          "name": "",
          "type": "address"
        }
      ],
      "stateMutability": "view",
      "type": "function"
    },
    {
      "inputs": [],
      "name": "presale",
      "outputs": [
        {
          "internalType": "address",
          "name": "",
          "type": "address"
        }
      ],
      "stateMutability": "view",
      "type": "function"
    },
    {
      "inputs": [
        {
          "internalType": "address",
          "name": "token",
          "type": "address"
        }
      ],
      "name": "releasable",
      "outputs": [
        {
          "internalType": "uint256",
          "name": "",
          "type": "uint256"
        }
      ],
      "stateMutability": "view",
      "type": "function"
    },
    {
      "inputs": [
        {
          "internalType": "address",
          "name": "token",
          "type": "address"
        }
      ],
      "name": "release",
      "outputs": [
        {
          "internalType": "bool",
          "name": "",
          "type": "bool"
        }
      ],
      "stateMutability": "nonpayable",
      "type": "function"
    },
    {
      "inputs": [
        {
          "internalType": "address",
          "name": "token",
          "type": "address"
        }
      ],
      "name": "released",
      "outputs": [
        {
          "internalType": "uint256",
          "name": "",
          "type": "uint256"
        }
      ],
      "stateMutability": "view",
      "type": "function"
    },
    {
      "inputs": [],
      "name": "renounceOwnership",
      "outputs": [],
      "stateMutability": "nonpayable",
      "type": "function"
    },
    {
      "inputs": [],
      "name": "reserve",
      "outputs": [
        {
          "internalType": "address",
          "name": "",
          "type": "address"
        }
      ],
      "stateMutability": "view",
      "type": "function"
    },
    {
      "inputs": [],
      "name": "start",
      "outputs": [
        {
          "internalType": "uint256",
          "name": "",
          "type": "uint256"
        }
      ],
      "stateMutability": "view",
      "type": "function"
    },
    {
      "inputs": [
        {
          "internalType": "address",
          "name": "newOwner",
          "type": "address"
        }
      ],
      "name": "transferOwnership",
      "outputs": [],
      "stateMutability": "nonpayable",
      "type": "function"
    },
    {
      "inputs": [
        {
          "internalType": "address",
          "name": "token",
          "type": "address"
        }
      ],
      "name": "unlockRestAmount",
      "outputs": [
        {
          "internalType": "bool",
          "name": "",
          "type": "bool"
        }
      ],
      "stateMutability": "nonpayable",
      "type": "function"
    },
    {
      "inputs": [
        {
          "internalType": "address",
          "name": "token",
          "type": "address"
        },
        {
          "internalType": "uint256",
          "name": "timestamp",
          "type": "uint256"
        }
      ],
      "name": "vestedAmount",
      "outputs": [
        {
          "internalType": "uint256",
          "name": "",
          "type": "uint256"
        }
      ],
      "stateMutability": "view",
      "type": "function"
    }
  ],
  "bytecode": "0x60806040523480156200001157600080fd5b5060405162001f9938038062001f99833981016040819052620000349162000d32565b33806200005b57604051631e4fbdf760e01b81526000600482015260240160405180910390fd5b620000668162000c44565b508051600180546001600160a01b039283166001600160a01b03199182168117909255602080850151600280549186169184168217905560408087015160038054918816918616821790556060808901516004805491909916961686178855825160808101845296875293860192909252840152820152620000ec916005919062000c94565b50604051806060016040528063663186008152602001601481526020016000151581525060066000808152602001908152602001600020600082015181600001556020820151816001015560408201518160020160006101000a81548160ff02191690831515021790555090505060405180606001604052806367241a008152602001600a8152602001600015158152506006600060018152602001908152602001600020600082015181600001556020820151816001015560408201518160020160006101000a81548160ff0219169083151502179055509050506040518060600160405280636812b9808152602001600a8152602001600015158152506006600060028152602001908152602001600020600082015181600001556020820151816001015560408201518160020160006101000a81548160ff02191690831515021790555090505060405180606001604052806369054d808152602001600a8152602001600015158152506006600060038152602001908152602001600020600082015181600001556020820151816001015560408201518160020160006101000a81548160ff02191690831515021790555090505060076000600160009054906101000a90046001600160a01b03166001600160a01b03166001600160a01b031681526020019081526020016000206040518060400160405280602360ff168152602001600160ff168152509080600181540180825580915050600190039060005260206000200160009091909190915060008201518160000160006101000a81548160ff021916908360ff16021790555060208201518160000160016101000a81548160ff021916908360ff160217905550505060076000600260009054906101000a90046001600160a01b03166001600160a01b03166001600160a01b031681526020019081526020016000206040518060400160405280601e60ff168152602001600160ff168152509080600181540180825580915050600190039060005260206000200160009091909190915060008201518160000160006101000a81548160ff021916908360ff16021790555060208201518160000160016101000a81548160ff021916908360ff160217905550505060076000600360009054906101000a90046001600160a01b03166001600160a01b03166001600160a01b031681526020019081526020016000206040518060400160405280601960ff168152602001600160ff168152509080600181540180825580915050600190039060005260206000200160009091909190915060008201518160000160006101000a81548160ff021916908360ff16021790555060208201518160000160016101000a81548160ff021916908360ff160217905550505060076000600460009054906101000a90046001600160a01b03166001600160a01b03166001600160a01b031681526020019081526020016000206040518060400160405280600a60ff168152602001600160ff168152509080600181540180825580915050600190039060005260206000200160009091909190915060008201518160000160006101000a81548160ff021916908360ff16021790555060208201518160000160016101000a81548160ff021916908360ff160217905550505060076000600160009054906101000a90046001600160a01b03166001600160a01b03166001600160a01b031681526020019081526020016000206040518060400160405280602360ff168152602001600260ff168152509080600181540180825580915050600190039060005260206000200160009091909190915060008201518160000160006101000a81548160ff021916908360ff16021790555060208201518160000160016101000a81548160ff021916908360ff160217905550505060076000600360009054906101000a90046001600160a01b03166001600160a01b03166001600160a01b031681526020019081526020016000206040518060400160405280603760ff168152602001600260ff168152509080600181540180825580915050600190039060005260206000200160009091909190915060008201518160000160006101000a81548160ff021916908360ff16021790555060208201518160000160016101000a81548160ff021916908360ff160217905550505060076000600460009054906101000a90046001600160a01b03166001600160a01b03166001600160a01b031681526020019081526020016000206040518060400160405280600a60ff168152602001600260ff168152509080600181540180825580915050600190039060005260206000200160009091909190915060008201518160000160006101000a81548160ff021916908360ff16021790555060208201518160000160016101000a81548160ff021916908360ff160217905550505060076000600160009054906101000a90046001600160a01b03166001600160a01b03166001600160a01b031681526020019081526020016000206040518060400160405280602360ff168152602001600360ff168152509080600181540180825580915050600190039060005260206000200160009091909190915060008201518160000160006101000a81548160ff021916908360ff16021790555060208201518160000160016101000a81548160ff021916908360ff160217905550505060076000600360009054906101000a90046001600160a01b03166001600160a01b03166001600160a01b031681526020019081526020016000206040518060400160405280603760ff168152602001600360ff168152509080600181540180825580915050600190039060005260206000200160009091909190915060008201518160000160006101000a81548160ff021916908360ff16021790555060208201518160000160016101000a81548160ff021916908360ff160217905550505060076000600460009054906101000a90046001600160a01b03166001600160a01b03166001600160a01b031681526020019081526020016000206040518060400160405280600a60ff168152602001600360ff168152509080600181540180825580915050600190039060005260206000200160009091909190915060008201518160000160006101000a81548160ff021916908360ff16021790555060208201518160000160016101000a81548160ff021916908360ff160217905550505060076000600160009054906101000a90046001600160a01b03166001600160a01b03166001600160a01b031681526020019081526020016000206040518060400160405280602360ff168152602001600460ff168152509080600181540180825580915050600190039060005260206000200160009091909190915060008201518160000160006101000a81548160ff021916908360ff16021790555060208201518160000160016101000a81548160ff021916908360ff160217905550505060076000600360009054906101000a90046001600160a01b03166001600160a01b03166001600160a01b031681526020019081526020016000206040518060400160405280603760ff168152602001600460ff168152509080600181540180825580915050600190039060005260206000200160009091909190915060008201518160000160006101000a81548160ff021916908360ff16021790555060208201518160000160016101000a81548160ff021916908360ff160217905550505060076000600460009054906101000a90046001600160a01b03166001600160a01b03166001600160a01b031681526020019081526020016000206040518060400160405280600a60ff168152602001600460ff168152509080600181540180825580600093845260209384902085519101600019018054959094015160ff9081166101000261ffff19909616911617939093179091555062000dcc915050565b600080546001600160a01b038381166001600160a01b0319831681178455604051919092169283917f8be0079c531659141344cd1fd0a4f28419497f9722a3daafe3b4186f6b6457e09190a35050565b82805482825590600052602060002090810192821562000cec579160200282015b8281111562000cec57825182546001600160a01b0319166001600160a01b0390911617825560209092019160019091019062000cb5565b5062000cfa92915062000cfe565b5090565b5b8082111562000cfa576000815560010162000cff565b80516001600160a01b038116811462000d2d57600080fd5b919050565b60006080828403121562000d4557600080fd5b82601f83011262000d5557600080fd5b604051608081016001600160401b038111828210171562000d8657634e487b7160e01b600052604160045260246000fd5b60405280608084018581111562000d9c57600080fd5b845b8181101562000dc15762000db28162000d15565b83526020928301920162000d9e565b509195945050505050565b6111bd8062000ddc6000396000f3fe608060405234801561001057600080fd5b506004361061018e5760003560e01c80638da5cb5b116100de578063cd3293de11610097578063e89e4ed611610071578063e89e4ed61461036e578063efbe1c1c146103bd578063f2fde38b146103c5578063fdea8e0b146103d857600080fd5b8063cd3293de1461033d578063d15d553414610350578063e831884e1461035b57600080fd5b80638da5cb5b146102ca57806392d22d78146102db5780639852595c146102e6578063a3f8eace1461030f578063b9516b4214610322578063be9a65551461033557600080fd5b80631f3a71ba1161014b578063597ee40c11610125578063597ee40c14610287578063715018a61461029a57806371b78ea8146102a457806380c16521146102b757600080fd5b80631f3a71ba14610249578063274b42a71461025c57806335cd34a81461026757600080fd5b80630217d6ec14610193578063151ac2aa146101bc57806317cf5391146101d557806319165587146101e85780631936e4be1461020b5780631e74827214610236575b600080fd5b6101a66101a1366004610f6c565b6103eb565b6040516101b39190610f87565b60405180910390f35b6101c76367241a0081565b6040519081526020016101b3565b6101c76101e3366004610fdd565b61046f565b6101fb6101f6366004610f6c565b6104ae565b60405190151581526020016101b3565b60045461021e906001600160a01b031681565b6040516001600160a01b0390911681526020016101b3565b60015461021e906001600160a01b031681565b6101c7610257366004610f6c565b6105c7565b6101c7636631860081565b6101c7610275366004610f6c565b60086020526000908152604090205481565b6101fb610295366004610f6c565b610632565b6102a261074c565b005b61021e6102b2366004611018565b610760565b6101c76102c5366004611033565b6107d9565b6000546001600160a01b031661021e565b6101c76369054d8081565b6101c76102f4366004610f6c565b6001600160a01b031660009081526008602052604090205490565b6101c761031d366004610f6c565b610857565b6101fb610330366004611055565b610885565b6101c7610b00565b60035461021e906001600160a01b031681565b6101c7636812b98081565b6101c7610369366004611088565b610b2e565b6103a061037c366004611088565b60066020526000908152604090208054600182015460029092015490919060ff1683565b6040805193845260208401929092521515908201526060016101b3565b6101c7610b8a565b6102a26103d3366004610f6c565b610bb5565b60025461021e906001600160a01b031681565b6001600160a01b0381166000908152600760209081526040808320805482518185028101850190935280835260609492939192909184015b82821015610464576000848152602090819020604080518082019091529084015460ff80821683526101009091041681830152825260019092019101610423565b505050509050919050565b6001600160a01b0382166000908152600860205260408120546104a590610495856105c7565b61049f91906110b7565b836107d9565b90505b92915050565b6000806104ba83610857565b9050600081116105115760405162461bcd60e51b815260206004820152601b60248201527f506f6f6c20746f2072656c65617365206e6f74206265207a65726f000000000060448201526064015b60405180910390fd5b826001600160a01b03167fc0e523490dd523c33b1878c9eb14ff46991e3f5b2cd33710918618f2a39cba1b8260405161054c91815260200190565b60405180910390a261055e8382610bf3565b506001600160a01b038316600090815260086020526040812080548392906105879084906110b7565b90915550600190506006600061059c42610b2e565b81526020810191909152604001600020600201805460ff191691151591909117905550600192915050565b6040516370a0823160e01b81523060048201526000906001600160a01b038316906370a0823190602401602060405180830381865afa15801561060e573d6000803e3d6000fd5b505050506040513d601f19601f820116820180604052508101906104a891906110ca565b600061063c610d15565b6006600061064b610369610b8a565b815260208101919091526040016000206002015460ff166106c15760405162461bcd60e51b815260206004820152602a60248201527f5468652066696e616c20706861736520686173206e6f74206265656e2072656c60448201526932b0b9b2b2103cb2ba1760b11b6064820152608401610508565b60006106cc836105c7565b60405163a9059cbb60e01b8152336004820152602481018290529091506001600160a01b0384169063a9059cbb906044016020604051808303816000875af115801561071c573d6000803e3d6000fd5b505050506040513d601f19601f8201168201806040525081019061074091906110e3565b5060019150505b919050565b610754610d15565b61075e6000610d42565b565b60055460009060ff831611156107a85760405162461bcd60e51b815260206004820152600d60248201526c125b99195e081a5b9d985b1a59609a1b6044820152606401610508565b60058260ff16815481106107be576107be61110c565b6000918252602090912001546001600160a01b031692915050565b60006107e3610b00565b8210156107f2575060006104a8565b60006107fe8484610d92565b9050600081116108505760405162461bcd60e51b815260206004820181905260248201527f416d6f756e7420746f2064697374726962757465206e6f74206265207a65726f6044820152606401610508565b90506104a8565b6000610862826105c7565b60000361087157506000919050565b6104a8824267ffffffffffffffff1661046f565b600061088f610d15565b60055460ff841611156108d45760405162461bcd60e51b815260206004820152600d60248201526c125b99195e081a5b9d985b1a59609a1b6044820152606401610508565b6001600160a01b03821661091c5760405162461bcd60e51b815260206004820152600f60248201526e1059191c995cdcc81a5b9d985b1a59608a1b6044820152606401610508565b600060058460ff16815481106109345761093461110c565b600091825260209091200154600580546001600160a01b039092169250849160ff87169081106109665761096661110c565b9060005260206000200160006101000a8154816001600160a01b0302191690836001600160a01b031602179055508360ff166000036109bf57600180546001600160a01b0319166001600160a01b038516179055610a3c565b8360ff166001036109ea57600280546001600160a01b0319166001600160a01b038516179055610a3c565b8360ff16600203610a1557600380546001600160a01b0319166001600160a01b038516179055610a3c565b8360ff16600303610a3c57600480546001600160a01b0319166001600160a01b0385161790555b6001600160a01b03808216600090815260076020526040808220928616825290208154610a699290610eab565b506001600160a01b0381166000908152600760205260408120610a8b91610f21565b806001600160a01b03168460ff167f20bb19583dffb816b59625dc685ef6e1a806972ed98716c29a1da27b2025cb7c60058760ff1681548110610ad057610ad061110c565b600091825260209182902001546040516001600160a01b0390911681520160405180910390a35060019392505050565b6000805260066020527f54cdd369e4e8a8515e52ca72ec816c2101831ad1f18bf44102ed171459c9b4f85490565b6000610b38610b00565b821015610b4757506000919050565b610b4f610b8a565b8210610b6a57610b6160016004611122565b60ff1692915050565b62ed4e00610b76610b00565b610b80908461113b565b6104a8919061114e565b6000600681610b9b60016004611122565b60ff16815260200190815260200160002060000154905090565b610bbd610d15565b6001600160a01b038116610be757604051631e4fbdf760e01b815260006004820152602401610508565b610bf081610d42565b50565b6000805b600554811015610d0b576000610c3360058381548110610c1957610c1961110c565b6000918252602090912001546001600160a01b0316610e34565b60ff16905080600003610c465750610d03565b60006064610c548684611170565b610c5e919061114e565b9050856001600160a01b031663a9059cbb60058581548110610c8257610c8261110c565b60009182526020909120015460405160e083901b6001600160e01b03191681526001600160a01b039091166004820152602481018490526044016020604051808303816000875af1158015610cdb573d6000803e3d6000fd5b505050506040513d601f19601f82011682018060405250810190610cff91906110e3565b5050505b600101610bf7565b5060019392505050565b6000546001600160a01b0316331461075e5760405163118cdaa760e01b8152336004820152602401610508565b600080546001600160a01b038381166001600160a01b0319831681178455604051919092169283917f8be0079c531659141344cd1fd0a4f28419497f9722a3daafe3b4186f6b6457e09190a35050565b600080610d9e83610b2e565b60008181526006602052604090206002015490915060ff1615610e035760405162461bcd60e51b815260206004820152601a60248201527f416d6f756e742068617665206265656e2072656c65617365642e0000000000006044820152606401610508565b600081815260066020526040902060010154606490610e229086611170565b610e2c919061114e565b949350505050565b600080610e4042610b2e565b6001600160a01b0384166000908152600760205260409020549091508110610e6b5750600092915050565b6001600160a01b0383166000908152600760205260409020805482908110610e9557610e9561110c565b60009182526020909120015460ff169392505050565b828054828255906000526020600020908101928215610f115760005260206000209182015b82811115610f11578254825460ff91821660ff19821681178555855461ffff1990921617610100918290049092160217825560019283019290910190610ed0565b50610f1d929150610f3b565b5090565b5080546000825590600052602060002090810190610bf091905b5b80821115610f1d57805461ffff19168155600101610f3c565b80356001600160a01b038116811461074757600080fd5b600060208284031215610f7e57600080fd5b6104a582610f55565b602080825282518282018190526000919060409081850190868401855b82811015610fd0578151805160ff90811686529087015116868501529284019290850190600101610fa4565b5091979650505050505050565b60008060408385031215610ff057600080fd5b610ff983610f55565b946020939093013593505050565b803560ff8116811461074757600080fd5b60006020828403121561102a57600080fd5b6104a582611007565b6000806040838503121561104657600080fd5b50508035926020909101359150565b6000806040838503121561106857600080fd5b61107183611007565b915061107f60208401610f55565b90509250929050565b60006020828403121561109a57600080fd5b5035919050565b634e487b7160e01b600052601160045260246000fd5b808201808211156104a8576104a86110a1565b6000602082840312156110dc57600080fd5b5051919050565b6000602082840312156110f557600080fd5b8151801515811461110557600080fd5b9392505050565b634e487b7160e01b600052603260045260246000fd5b60ff82811682821603908111156104a8576104a86110a1565b818103818111156104a8576104a86110a1565b60008261116b57634e487b7160e01b600052601260045260246000fd5b500490565b80820281158282048414176104a8576104a86110a156fea2646970667358221220c1d23107a108d2231def6c717b73a0c465f97771019f2d2f5d211492ba6142f064736f6c63430008160033",
  "linkReferences": {},
  "deployedLinkReferences": {}
}